{
  "contractName": "LibraryDemo",
  "abi": [
    {
      "anonymous": false,
      "inputs": [
        {
          "indexed": true,
          "name": "from",
          "type": "address"
        },
        {
          "indexed": true,
          "name": "to",
          "type": "address"
        },
        {
          "indexed": false,
          "name": "value",
          "type": "uint256"
        }
      ],
      "name": "Transfer",
      "type": "event"
    },
    {
      "anonymous": false,
      "inputs": [
        {
          "indexed": true,
          "name": "owner",
          "type": "address"
        },
        {
          "indexed": true,
          "name": "spender",
          "type": "address"
        },
        {
          "indexed": false,
          "name": "value",
          "type": "uint256"
        }
      ],
      "name": "Approval",
      "type": "event"
    },
    {
      "constant": false,
      "inputs": [
        {
          "name": "self",
          "type": "LibraryDemo.TokenStorage storage"
        },
        {
          "name": "_initial_supply",
          "type": "uint256"
        }
      ],
      "name": "init",
      "outputs": [],
      "payable": false,
      "stateMutability": "nonpayable",
      "type": "function"
    },
    {
      "constant": false,
      "inputs": [
        {
          "name": "self",
          "type": "LibraryDemo.TokenStorage storage"
        },
        {
          "name": "_to",
          "type": "address"
        },
        {
          "name": "_value",
          "type": "uint256"
        }
      ],
      "name": "transfer",
      "outputs": [
        {
          "name": "success",
          "type": "bool"
        }
      ],
      "payable": false,
      "stateMutability": "nonpayable",
      "type": "function"
    },
    {
      "constant": false,
      "inputs": [
        {
          "name": "self",
          "type": "LibraryDemo.TokenStorage storage"
        },
        {
          "name": "_from",
          "type": "address"
        },
        {
          "name": "_to",
          "type": "address"
        },
        {
          "name": "_value",
          "type": "uint256"
        }
      ],
      "name": "transferFrom",
      "outputs": [
        {
          "name": "success",
          "type": "bool"
        }
      ],
      "payable": false,
      "stateMutability": "nonpayable",
      "type": "function"
    },
    {
      "constant": true,
      "inputs": [
        {
          "name": "self",
          "type": "LibraryDemo.TokenStorage storage"
        },
        {
          "name": "_owner",
          "type": "address"
        }
      ],
      "name": "balanceOf",
      "outputs": [
        {
          "name": "balance",
          "type": "uint256"
        }
      ],
      "payable": false,
      "stateMutability": "view",
      "type": "function"
    },
    {
      "constant": false,
      "inputs": [
        {
          "name": "self",
          "type": "LibraryDemo.TokenStorage storage"
        },
        {
          "name": "_spender",
          "type": "address"
        },
        {
          "name": "_value",
          "type": "uint256"
        }
      ],
      "name": "approve",
      "outputs": [
        {
          "name": "success",
          "type": "bool"
        }
      ],
      "payable": false,
      "stateMutability": "nonpayable",
      "type": "function"
    },
    {
      "constant": true,
      "inputs": [
        {
          "name": "self",
          "type": "LibraryDemo.TokenStorage storage"
        },
        {
          "name": "_owner",
          "type": "address"
        },
        {
          "name": "_spender",
          "type": "address"
        }
      ],
      "name": "allowance",
      "outputs": [
        {
          "name": "remaining",
          "type": "uint256"
        }
      ],
      "payable": false,
      "stateMutability": "view",
      "type": "function"
    }
  ],
  "bytecode": "0x610cbc610030600b82828239805160001a6073146000811461002057610022565bfe5b5030600052607381538281f300730000000000000000000000000000000000000000301460806040526004361061008f576000357c0100000000000000000000000000000000000000000000000000000000900463ffffffff16806361dcad73146100945780637cd15bba146100cb5780638f1e33e21461013a578063bd8c48571461018e578063c68689f11461021d578063e2efc02114610291575b600080fd5b8180156100a057600080fd5b506100c96004803603810190808035906020019092919080359060200190929190505050610300565b005b8180156100d757600080fd5b5061012060048036038101908080359060200190929190803573ffffffffffffffffffffffffffffffffffffffff16906020019092919080359060200190929190505050610353565b604051808215151515815260200191505060405180910390f35b61017860048036038101908080359060200190929190803573ffffffffffffffffffffffffffffffffffffffff169060200190929190505050610448565b6040518082815260200191505060405180910390f35b81801561019a57600080fd5b5061020360048036038101908080359060200190929190803573ffffffffffffffffffffffffffffffffffffffff169060200190929190803573ffffffffffffffffffffffffffffffffffffffff16906020019092919080359060200190929190505050610494565b604051808215151515815260200191505060405180910390f35b61027b60048036038101908080359060200190929190803573ffffffffffffffffffffffffffffffffffffffff169060200190929190803573ffffffffffffffffffffffffffffffffffffffff169060200190929190505050610928565b6040518082815260200191505060405180910390f35b81801561029d57600080fd5b506102e660048036038101908080359060200190929190803573ffffffffffffffffffffffffffffffffffffffff169060200190929190803590602001909291905050506109b2565b604051808215151515815260200191505060405180910390f35b808260020181905550808260000160003373ffffffffffffffffffffffffffffffffffffffff1673ffffffffffffffffffffffffffffffffffffffff168152602001908152602001600020819055505050565b6000818460010160003373ffffffffffffffffffffffffffffffffffffffff1673ffffffffffffffffffffffffffffffffffffffff16815260200190815260200160002060008573ffffffffffffffffffffffffffffffffffffffff1673ffffffffffffffffffffffffffffffffffffffff168152602001908152602001600020819055508273ffffffffffffffffffffffffffffffffffffffff163373ffffffffffffffffffffffffffffffffffffffff167f8c5be1e5ebec7d5bd14f71427d1e84f3dd0314c0f7b2291e5b200ac8c7c3b925846040518082815260200191505060405180910390a3600190509392505050565b60008260000160008373ffffffffffffffffffffffffffffffffffffffff1673ffffffffffffffffffffffffffffffffffffffff16815260200190815260200160002054905092915050565b6000808560010160008673ffffffffffffffffffffffffffffffffffffffff1673ffffffffffffffffffffffffffffffffffffffff16815260200190815260200160002060003373ffffffffffffffffffffffffffffffffffffffff1673ffffffffffffffffffffffffffffffffffffffff1681526020019081526020016000205490508560000160008573ffffffffffffffffffffffffffffffffffffffff1673ffffffffffffffffffffffffffffffffffffffff1681526020019081526020016000205473__SafeMathLib___________________________6366098d4f9091856040518363ffffffff167c0100000000000000000000000000000000000000000000000000000000028152600401808381526020018281526020019250505060206040518083038186803b1580156105ce57600080fd5b505af41580156105e2573d6000803e3d6000fd5b505050506040513d60208110156105f857600080fd5b81019080805190602001909291905050508660000160008673ffffffffffffffffffffffffffffffffffffffff1673ffffffffffffffffffffffffffffffffffffffff168152602001908152602001600020819055508560000160008673ffffffffffffffffffffffffffffffffffffffff1673ffffffffffffffffffffffffffffffffffffffff1681526020019081526020016000205473__SafeMathLib___________________________63f4f3bdc19091856040518363ffffffff167c0100000000000000000000000000000000000000000000000000000000028152600401808381526020018281526020019250505060206040518083038186803b15801561070457600080fd5b505af4158015610718573d6000803e3d6000fd5b505050506040513d602081101561072e57600080fd5b81019080805190602001909291905050508660000160008773ffffffffffffffffffffffffffffffffffffffff1673ffffffffffffffffffffffffffffffffffffffff168152602001908152602001600020819055508073__SafeMathLib___________________________63f4f3bdc19091856040518363ffffffff167c0100000000000000000000000000000000000000000000000000000000028152600401808381526020018281526020019250505060206040518083038186803b1580156107f957600080fd5b505af415801561080d573d6000803e3d6000fd5b505050506040513d602081101561082357600080fd5b81019080805190602001909291905050508660010160008773ffffffffffffffffffffffffffffffffffffffff1673ffffffffffffffffffffffffffffffffffffffff16815260200190815260200160002060003373ffffffffffffffffffffffffffffffffffffffff1673ffffffffffffffffffffffffffffffffffffffff168152602001908152602001600020819055508373ffffffffffffffffffffffffffffffffffffffff168573ffffffffffffffffffffffffffffffffffffffff167fddf252ad1be2c89b69c2b068fc378daa952ba7f163c4a11628f55a4df523b3ef856040518082815260200191505060405180910390a36001915050949350505050565b60008360010160008473ffffffffffffffffffffffffffffffffffffffff1673ffffffffffffffffffffffffffffffffffffffff16815260200190815260200160002060008373ffffffffffffffffffffffffffffffffffffffff1673ffffffffffffffffffffffffffffffffffffffff1681526020019081526020016000205490509392505050565b60008360000160003373ffffffffffffffffffffffffffffffffffffffff1673ffffffffffffffffffffffffffffffffffffffff1681526020019081526020016000205473__SafeMathLib___________________________63f4f3bdc19091846040518363ffffffff167c0100000000000000000000000000000000000000000000000000000000028152600401808381526020018281526020019250505060206040518083038186803b158015610a6a57600080fd5b505af4158015610a7e573d6000803e3d6000fd5b505050506040513d6020811015610a9457600080fd5b81019080805190602001909291905050508460000160003373ffffffffffffffffffffffffffffffffffffffff1673ffffffffffffffffffffffffffffffffffffffff168152602001908152602001600020819055508360000160008473ffffffffffffffffffffffffffffffffffffffff1673ffffffffffffffffffffffffffffffffffffffff1681526020019081526020016000205473__SafeMathLib___________________________6366098d4f9091846040518363ffffffff167c0100000000000000000000000000000000000000000000000000000000028152600401808381526020018281526020019250505060206040518083038186803b158015610ba057600080fd5b505af4158015610bb4573d6000803e3d6000fd5b505050506040513d6020811015610bca57600080fd5b81019080805190602001909291905050508460000160008573ffffffffffffffffffffffffffffffffffffffff1673ffffffffffffffffffffffffffffffffffffffff168152602001908152602001600020819055508273ffffffffffffffffffffffffffffffffffffffff163373ffffffffffffffffffffffffffffffffffffffff167fddf252ad1be2c89b69c2b068fc378daa952ba7f163c4a11628f55a4df523b3ef846040518082815260200191505060405180910390a36001905093925050505600a165627a7a72305820e8c4b174d17393e3617a20b980f9dd867178b69f5a79c001b6b5faec5fcb8e8b0029",
  "source": "/*\n Example taken from https://blog.aragon.org/library-driven-development-in-solidity-2bebcaf88736/\n*/\npragma solidity ^0.4.17;\n\nimport \"../contracts/SafeMathLib.sol\";\n\nlibrary LibraryDemo {\n  using SafeMathLib for uint;\n\n  struct TokenStorage {\n    mapping (address => uint) balances;\n    mapping (address => mapping (address => uint)) allowed;\n    uint totalSupply;\n  }\n\n  event Transfer(address indexed from, address indexed to, uint value);\n  event Approval(address indexed owner, address indexed spender, uint value);\n  \n  function init(TokenStorage storage self, uint _initial_supply) {\n    self.totalSupply = _initial_supply;\n    self.balances[msg.sender] = _initial_supply;\n  }\n  \n  function transfer(TokenStorage storage self, address _to, uint _value) returns (bool success) {\n    self.balances[msg.sender] = self.balances[msg.sender].minus(_value);\n    self.balances[_to] = self.balances[_to].plus(_value);\n    Transfer(msg.sender, _to, _value);\n    return true;\n  }\n\n  function transferFrom(TokenStorage storage self, address _from, address _to, uint _value) returns (bool success) {\n    var _allowance = self.allowed[_from][msg.sender];\n\n    self.balances[_to] = self.balances[_to].plus(_value);\n    self.balances[_from] = self.balances[_from].minus(_value);\n    self.allowed[_from][msg.sender] = _allowance.minus(_value);\n    Transfer(_from, _to, _value);\n    return true;\n  }\n\n  function balanceOf(TokenStorage storage self, address _owner) constant returns (uint balance) {\n    return self.balances[_owner];\n  }\n\n  function approve(TokenStorage storage self, address _spender, uint _value) returns (bool success) {\n    self.allowed[msg.sender][_spender] = _value;\n    Approval(msg.sender, _spender, _value);\n    return true;\n  }\n\n  function allowance(TokenStorage storage self, address _owner, address _spender) constant returns (uint remaining) {\n    return self.allowed[_owner][_spender];\n  }\n}",
  "sourcePath": "C:\\Users\\Jimmy\\git\\Truffle\\ProofOfExistence\\contracts\\LibraryDemo.sol",
  "compiler": {
    "name": "solc",
    "version": "0.4.24+commit.e67f0147.Emscripten.clang"
  },
  "schemaVersion": "2.0.1",
  "updatedAt": "2018-08-28T03:39:57.778Z"
}