{
  "contractName": "ProofOfExistence",
  "abi": [
    {
      "constant": false,
      "inputs": [
        {
          "name": "photoHash",
          "type": "string"
        }
      ],
      "name": "addPhotoToMap",
      "outputs": [
        {
          "name": "",
          "type": "bool"
        }
      ],
      "payable": false,
      "stateMutability": "nonpayable",
      "type": "function"
    },
    {
      "constant": true,
      "inputs": [
        {
          "name": "photoHash",
          "type": "string"
        }
      ],
      "name": "getPhotoTimestamp",
      "outputs": [
        {
          "name": "",
          "type": "uint256"
        }
      ],
      "payable": false,
      "stateMutability": "view",
      "type": "function"
    }
  ],
  "bytecode": "0x6080604052604060015534801561001557600080fd5b506104cb806100256000396000f30060806040526004361061004c576000357c0100000000000000000000000000000000000000000000000000000000900463ffffffff1680635fa3bc8314610051578063c56637ec146100d2575b600080fd5b34801561005d57600080fd5b506100b8600480360381019080803590602001908201803590602001908080601f016020809104026020016040519081016040528093929190818152602001838380828437820191505050505050919291929050505061014f565b604051808215151515815260200191505060405180910390f35b3480156100de57600080fd5b50610139600480360381019080803590602001908201803590602001908080601f016020809104026020016040519081016040528093929190818152602001838380828437820191505050505050919291929050505061038f565b6040518082815260200191505060405180910390f35b60006060829050600154815114151561016757600080fd5b600080846040518082805190602001908083835b6020831015156101a0578051825260208201915060208101905060208303925061017b565b6001836020036101000a038019825116818451168082178552505050505050905001915050908152602001604051809103902060000160009054906101000a900473ffffffffffffffffffffffffffffffffffffffff1673ffffffffffffffffffffffffffffffffffffffff161480156102875750600080846040518082805190602001908083835b60208310151561024e5780518252602082019150602081019050602083039250610229565b6001836020036101000a038019825116818451168082178552505050505050905001915050908152602001604051809103902060010154145b1561037b5760408051908101604052803373ffffffffffffffffffffffffffffffffffffffff168152602001428152506000846040518082805190602001908083835b6020831015156102ef57805182526020820191506020810190506020830392506102ca565b6001836020036101000a038019825116818451168082178552505050505050905001915050908152602001604051809103902060008201518160000160006101000a81548173ffffffffffffffffffffffffffffffffffffffff021916908373ffffffffffffffffffffffffffffffffffffffff16021790555060208201518160010155905050610384565b60009150610389565b600191505b50919050565b6000606082905060015481511415156103a757600080fd5b600080846040518082805190602001908083835b6020831015156103e057805182526020820191506020810190506020830392506103bb565b6001836020036101000a0380198251168184511680821785525050505050509050019150509081526020016040518091039020600101541115156104275760009150610499565b6000836040518082805190602001908083835b60208310151561045f578051825260208201915060208101905060208303925061043a565b6001836020036101000a03801982511681845116808217855250505050505090500191505090815260200160405180910390206001015491505b509190505600a165627a7a7230582087f2ec58b8aea19f81e5010e8a444ac4eeee651b953e5a9bcdde491c733649530029",
  "source": "pragma solidity ^0.4.17;\n\ncontract ProofOfExistence {\n    mapping(string => OwnershipTime) photoToOwnerMap;\n    uint photoHashLength = 64;\n\n    struct OwnershipTime {\n        address owner;\n        uint blockTime;\n    }\n\n    function addPhotoToMap(string photoHash) public returns (bool) {\n        bytes memory byteStr = bytes(photoHash);\n        require(byteStr.length == photoHashLength);\n\n        if(photoToOwnerMap[photoHash].owner == 0 && photoToOwnerMap[photoHash].blockTime == 0){\n            photoToOwnerMap[photoHash] = OwnershipTime(msg.sender, now);\n        } else {\n            return false;\n        }\n\n        return true;\n    }\n\n    function getPhotoTimestamp(string photoHash) public view returns(uint) {\n        bytes memory byteStr = bytes(photoHash);\n        require(byteStr.length == photoHashLength);\n\n        if(photoToOwnerMap[photoHash].blockTime <= 0){\n            return 0;\n        } else {\n            return photoToOwnerMap[photoHash].blockTime;\n        }\n    }\n}",
  "sourcePath": "C:\\Users\\Jimmy\\git\\Truffle\\ProofOfExistence\\contracts\\ProofOfExistence.sol",
  "compiler": {
    "name": "solc",
    "version": "0.4.24+commit.e67f0147.Emscripten.clang"
  },
  "schemaVersion": "2.0.1",
  "updatedAt": "2018-08-27T10:14:04.878Z"
}